{
  "contractName": "dBank",
  "abi": [
    {
      "inputs": [
        {
          "internalType": "contract Token",
          "name": "_token",
          "type": "address"
        }
      ],
      "stateMutability": "nonpayable",
      "type": "constructor"
    },
    {
      "anonymous": false,
      "inputs": [
        {
          "indexed": true,
          "internalType": "address",
          "name": "user",
          "type": "address"
        },
        {
          "indexed": false,
          "internalType": "uint256",
          "name": "etherAmount",
          "type": "uint256"
        },
        {
          "indexed": false,
          "internalType": "uint256",
          "name": "timeStart",
          "type": "uint256"
        }
      ],
      "name": "Deposit",
      "type": "event"
    },
    {
      "anonymous": false,
      "inputs": [
        {
          "indexed": true,
          "internalType": "address",
          "name": "user",
          "type": "address"
        },
        {
          "indexed": false,
          "internalType": "uint256",
          "name": "etherAmount",
          "type": "uint256"
        }
      ],
      "name": "Withdraw",
      "type": "event"
    },
    {
      "inputs": [
        {
          "internalType": "address",
          "name": "",
          "type": "address"
        }
      ],
      "name": "depositStart",
      "outputs": [
        {
          "internalType": "uint256",
          "name": "",
          "type": "uint256"
        }
      ],
      "stateMutability": "view",
      "type": "function",
      "constant": true
    },
    {
      "inputs": [
        {
          "internalType": "address",
          "name": "",
          "type": "address"
        }
      ],
      "name": "etherBalanceOf",
      "outputs": [
        {
          "internalType": "uint256",
          "name": "",
          "type": "uint256"
        }
      ],
      "stateMutability": "view",
      "type": "function",
      "constant": true
    },
    {
      "inputs": [
        {
          "internalType": "address",
          "name": "",
          "type": "address"
        }
      ],
      "name": "isDeposited",
      "outputs": [
        {
          "internalType": "bool",
          "name": "",
          "type": "bool"
        }
      ],
      "stateMutability": "view",
      "type": "function",
      "constant": true
    },
    {
      "inputs": [],
      "name": "getTotalSupply",
      "outputs": [
        {
          "internalType": "uint256",
          "name": "",
          "type": "uint256"
        }
      ],
      "stateMutability": "nonpayable",
      "type": "function"
    },
    {
      "inputs": [],
      "name": "deposit",
      "outputs": [],
      "stateMutability": "payable",
      "type": "function",
      "payable": true
    },
    {
      "inputs": [],
      "name": "withdraw",
      "outputs": [],
      "stateMutability": "nonpayable",
      "type": "function"
    },
    {
      "inputs": [],
      "name": "borrow",
      "outputs": [],
      "stateMutability": "payable",
      "type": "function",
      "payable": true
    },
    {
      "inputs": [],
      "name": "payOff",
      "outputs": [],
      "stateMutability": "nonpayable",
      "type": "function"
    }
  ],
  "bytecode": "0x608060405234801561001057600080fd5b5060405161088e38038061088e8339818101604052602081101561003357600080fd5b8101908080519060200190929190505050806000806101000a81548173ffffffffffffffffffffffffffffffffffffffff021916908373ffffffffffffffffffffffffffffffffffffffff160217905550506107fa806100946000396000f3fe60806040526004361061007b5760003560e01c8063c4e41b221161004e578063c4e41b221461017a578063d0e30db0146101a5578063e68d3569146101af578063ff87930a146101b95761007b565b8063179fc99f146100805780633ccfd60b146100e55780633fac68d5146100fc5780637373202414610113575b600080fd5b34801561008c57600080fd5b506100cf600480360360208110156100a357600080fd5b81019080803573ffffffffffffffffffffffffffffffffffffffff16906020019092919050505061021e565b6040518082815260200191505060405180910390f35b3480156100f157600080fd5b506100fa610236565b005b34801561010857600080fd5b50610111610525565b005b34801561011f57600080fd5b506101626004803603602081101561013657600080fd5b81019080803573ffffffffffffffffffffffffffffffffffffffff169060200190929190505050610527565b60405180821515815260200191505060405180910390f35b34801561018657600080fd5b5061018f610547565b6040518082815260200191505060405180910390f35b6101ad6105f0565b005b6101b76107aa565b005b3480156101c557600080fd5b50610208600480360360208110156101dc57600080fd5b81019080803573ffffffffffffffffffffffffffffffffffffffff1690602001909291905050506107ac565b6040518082815260200191505060405180910390f35b60016020528060005260406000206000915090505481565b6000600260003373ffffffffffffffffffffffffffffffffffffffff1673ffffffffffffffffffffffffffffffffffffffff1681526020019081526020016000205442039050600061a8ea905060008054906101000a900473ffffffffffffffffffffffffffffffffffffffff1673ffffffffffffffffffffffffffffffffffffffff166340c10f1933836040518363ffffffff1660e01b8152600401808373ffffffffffffffffffffffffffffffffffffffff16815260200182815260200192505050600060405180830381600087803b15801561031457600080fd5b505af1158015610328573d6000803e3d6000fd5b505050503373ffffffffffffffffffffffffffffffffffffffff166108fc600160003373ffffffffffffffffffffffffffffffffffffffff1673ffffffffffffffffffffffffffffffffffffffff168152602001908152602001600020549081150290604051600060405180830381858888f193505050501580156103b1573d6000803e3d6000fd5b506000600160003373ffffffffffffffffffffffffffffffffffffffff1673ffffffffffffffffffffffffffffffffffffffff168152602001908152602001600020819055506000600260003373ffffffffffffffffffffffffffffffffffffffff1673ffffffffffffffffffffffffffffffffffffffff168152602001908152602001600020819055506000600360003373ffffffffffffffffffffffffffffffffffffffff1673ffffffffffffffffffffffffffffffffffffffff16815260200190815260200160002060006101000a81548160ff0219169083151502179055503373ffffffffffffffffffffffffffffffffffffffff167f884edad9ce6fa2440d8a54cc123490eb96d2768479d49ff9c7366125a9424364600160003373ffffffffffffffffffffffffffffffffffffffff1673ffffffffffffffffffffffffffffffffffffffff168152602001908152602001600020546040518082815260200191505060405180910390a25050565b565b60036020528060005260406000206000915054906101000a900460ff1681565b60008060009054906101000a900473ffffffffffffffffffffffffffffffffffffffff1673ffffffffffffffffffffffffffffffffffffffff166318160ddd6040518163ffffffff1660e01b815260040160206040518083038186803b1580156105b057600080fd5b505afa1580156105c4573d6000803e3d6000fd5b505050506040513d60208110156105da57600080fd5b8101908080519060200190929190505050905090565b34600160003373ffffffffffffffffffffffffffffffffffffffff1673ffffffffffffffffffffffffffffffffffffffff1681526020019081526020016000205401600160003373ffffffffffffffffffffffffffffffffffffffff1673ffffffffffffffffffffffffffffffffffffffff1681526020019081526020016000208190555042600260003373ffffffffffffffffffffffffffffffffffffffff1673ffffffffffffffffffffffffffffffffffffffff1681526020019081526020016000205401600260003373ffffffffffffffffffffffffffffffffffffffff1673ffffffffffffffffffffffffffffffffffffffff168152602001908152602001600020819055506001600360003373ffffffffffffffffffffffffffffffffffffffff1673ffffffffffffffffffffffffffffffffffffffff16815260200190815260200160002060006101000a81548160ff0219169083151502179055503373ffffffffffffffffffffffffffffffffffffffff167f90890809c654f11d6e72a28fa60149770a0d11ec6c92319d6ceb2bb0a4ea1a153442604051808381526020018281526020019250505060405180910390a2565b565b6002602052806000526040600020600091509050548156fea264697066735822122074539255ea4f4fb9f4206f3ed616ac34d8bc7d875624f2bddcb20ff6ac45a0cb64736f6c63430007060033",
  "immutableReferences": {},
  "source": "// SPDX-License-Identifier: MIT\r\npragma solidity >=0.6.0 <0.8.0;\r\n\r\nimport \"./Token.sol\";\r\n\r\ncontract dBank {\r\n\r\n  //assign Token contract to variable\r\n  Token private token;\r\n\r\n  event Deposit(address indexed user, uint etherAmount, uint timeStart);\r\n  event Withdraw(address indexed user, uint etherAmount);\r\n\r\n  //add mappings\r\n  mapping(address => uint) public etherBalanceOf;\r\n  mapping(address => uint) public depositStart;\r\n  mapping(address => bool) public isDeposited;\r\n\r\n  //add events\r\n\r\n  //pass as constructor argument deployed Token contract\r\n  constructor(Token _token) public {\r\n    token = _token;\r\n    //assign token deployed contract to variable\r\n  }\r\n\r\n  function getTotalSupply() public returns(uint) {\r\n     return token.totalSupply();\r\n  }\r\n\r\n  function deposit() payable public {\r\n\r\n    //require(isDeposited[msg.sender] == false, \"Error. Deposite is already active in system\");\r\n\r\n    etherBalanceOf[msg.sender] = etherBalanceOf[msg.sender] + msg.value;\r\n    depositStart[msg.sender] = depositStart[msg.sender] + block.timestamp;\r\n    isDeposited[msg.sender] = true;\r\n    //check if msg.sender didn't already deposited funds\r\n    //check if msg.value is >= than 0.01 ETH\r\n\r\n    //increase msg.sender ether deposit balance\r\n    //start msg.sender hodling time\r\n\r\n    //set msg.sender deposit status to true\r\n    //emit Deposit event\r\n    emit Deposit(msg.sender, msg.value, block.timestamp);\r\n  }\r\n\r\n  function withdraw() public {\r\n    //check if msg.sender deposit status is true\r\n    //assign msg.sender ether deposit balance to variable for event\r\n\r\n    //check user's hold time\r\n    uint depositTime = block.timestamp - depositStart[msg.sender];\r\n\r\n    //calc interest per second\r\n    uint interest = 43242;\r\n    token.mint(msg.sender, interest);\r\n\r\n    //calc accrued interest\r\n\r\n    //send eth to user\r\n\r\n    //send interest in tokens to user\r\n    msg.sender.transfer(etherBalanceOf[msg.sender]);\r\n\r\n    //reset depositer data\r\n    etherBalanceOf[msg.sender] = 0;\r\n    depositStart[msg.sender] = 0;\r\n    isDeposited[msg.sender] = false;\r\n    //emit event\r\n\r\n    emit Withdraw(msg.sender, etherBalanceOf[msg.sender]);\r\n  }\r\n\r\n  function borrow() payable public {\r\n    //check if collateral is >= than 0.01 ETH\r\n    //check if user doesn't have active loan\r\n\r\n    //add msg.value to ether collateral\r\n\r\n    //calc tokens amount to mint, 50% of msg.value\r\n\r\n    //mint&send tokens to user\r\n\r\n    //activate borrower's loan status\r\n\r\n    //emit event\r\n  }\r\n\r\n  function payOff() public {\r\n    //check if loan is active\r\n    //transfer tokens from user back to the contract\r\n\r\n    //calc fee\r\n\r\n    //send user's collateral minus fee\r\n\r\n    //reset borrower's data\r\n\r\n    //emit event\r\n  }\r\n}",
  "sourcePath": "/Users/apple/Documents/Solidity/dbank/src/contracts/dBank.sol",
  "compiler": {
    "name": "solc",
    "version": "0.7.6+commit.7338295f.Emscripten.clang"
  },
  "schemaVersion": "3.4.1",
  "updatedAt": "2021-05-20T04:39:38.520Z",
  "networkType": "ethereum",
  "devdoc": {
    "kind": "dev",
    "methods": {},
    "version": 1
  },
  "userdoc": {
    "kind": "user",
    "methods": {},
    "version": 1
  }
}